{
  "contractName": "Deposits",
  "abi": [
    {
      "inputs": [
        {
          "internalType": "address",
          "name": "_signer",
          "type": "address"
        }
      ],
      "stateMutability": "nonpayable",
      "type": "constructor"
    },
    {
      "anonymous": false,
      "inputs": [
        {
          "indexed": false,
          "internalType": "uint256",
          "name": "depositId",
          "type": "uint256"
        }
      ],
      "name": "CancelEvent",
      "type": "event"
    },
    {
      "anonymous": false,
      "inputs": [
        {
          "indexed": false,
          "internalType": "uint256",
          "name": "depositId",
          "type": "uint256"
        },
        {
          "indexed": false,
          "internalType": "address",
          "name": "sender",
          "type": "address"
        },
        {
          "indexed": false,
          "internalType": "string",
          "name": "issueId",
          "type": "string"
        },
        {
          "indexed": false,
          "internalType": "uint256",
          "name": "value",
          "type": "uint256"
        },
        {
          "indexed": false,
          "internalType": "uint256",
          "name": "withdrawalRound",
          "type": "uint256"
        }
      ],
      "name": "DepositEvent",
      "type": "event"
    },
    {
      "anonymous": false,
      "inputs": [
        {
          "indexed": false,
          "internalType": "string",
          "name": "issueId",
          "type": "string"
        },
        {
          "indexed": false,
          "internalType": "address",
          "name": "to",
          "type": "address"
        },
        {
          "indexed": false,
          "internalType": "uint256",
          "name": "withdrawalRound",
          "type": "uint256"
        }
      ],
      "name": "WithdrawEvent",
      "type": "event"
    },
    {
      "inputs": [],
      "name": "githubWorkflowSigner",
      "outputs": [
        {
          "internalType": "address",
          "name": "",
          "type": "address"
        }
      ],
      "stateMutability": "view",
      "type": "function",
      "constant": true
    },
    {
      "inputs": [
        {
          "internalType": "string",
          "name": "",
          "type": "string"
        }
      ],
      "name": "githubWorkflows",
      "outputs": [
        {
          "internalType": "string",
          "name": "fileHash",
          "type": "string"
        },
        {
          "internalType": "address",
          "name": "account",
          "type": "address"
        }
      ],
      "stateMutability": "view",
      "type": "function",
      "constant": true
    },
    {
      "inputs": [
        {
          "internalType": "string",
          "name": "_hash",
          "type": "string"
        }
      ],
      "name": "registerWorkflow",
      "outputs": [],
      "stateMutability": "nonpayable",
      "type": "function"
    },
    {
      "inputs": [
        {
          "internalType": "address",
          "name": "_signer",
          "type": "address"
        }
      ],
      "name": "setSigner",
      "outputs": [],
      "stateMutability": "nonpayable",
      "type": "function"
    },
    {
      "inputs": [],
      "name": "getDepositIdsBySender",
      "outputs": [
        {
          "internalType": "uint256[]",
          "name": "",
          "type": "uint256[]"
        }
      ],
      "stateMutability": "view",
      "type": "function",
      "constant": true
    },
    {
      "inputs": [
        {
          "internalType": "uint256",
          "name": "_depositId",
          "type": "uint256"
        }
      ],
      "name": "getDepositById",
      "outputs": [
        {
          "internalType": "address",
          "name": "",
          "type": "address"
        },
        {
          "internalType": "string",
          "name": "",
          "type": "string"
        },
        {
          "internalType": "uint256",
          "name": "",
          "type": "uint256"
        },
        {
          "internalType": "uint256",
          "name": "",
          "type": "uint256"
        }
      ],
      "stateMutability": "view",
      "type": "function",
      "constant": true
    },
    {
      "inputs": [
        {
          "internalType": "string",
          "name": "_issueId",
          "type": "string"
        }
      ],
      "name": "getIssueBalance",
      "outputs": [
        {
          "internalType": "uint256",
          "name": "",
          "type": "uint256"
        }
      ],
      "stateMutability": "view",
      "type": "function",
      "constant": true
    },
    {
      "inputs": [
        {
          "internalType": "string",
          "name": "_issueId",
          "type": "string"
        }
      ],
      "name": "getIssueWithdrawalRound",
      "outputs": [
        {
          "internalType": "uint256",
          "name": "",
          "type": "uint256"
        }
      ],
      "stateMutability": "view",
      "type": "function",
      "constant": true
    },
    {
      "inputs": [
        {
          "internalType": "string",
          "name": "_issueId",
          "type": "string"
        }
      ],
      "name": "deposit",
      "outputs": [],
      "stateMutability": "payable",
      "type": "function",
      "payable": true
    },
    {
      "inputs": [
        {
          "internalType": "uint256",
          "name": "_depositId",
          "type": "uint256"
        }
      ],
      "name": "cancel",
      "outputs": [],
      "stateMutability": "nonpayable",
      "type": "function"
    },
    {
      "inputs": [
        {
          "internalType": "string",
          "name": "_issueId",
          "type": "string"
        },
        {
          "internalType": "address",
          "name": "_to",
          "type": "address"
        },
        {
          "internalType": "uint256",
          "name": "_runId",
          "type": "uint256"
        },
        {
          "internalType": "bytes",
          "name": "_signature",
          "type": "bytes"
        }
      ],
      "name": "withdraw",
      "outputs": [],
      "stateMutability": "nonpayable",
      "type": "function"
    }
  ],
  "bytecode": "0x6080604052600060045534801561001557600080fd5b5060405161166c38038061166c83398101604081905261003491610067565b60038054336001600160a01b031991821617909155600080549091166001600160a01b0392909216919091179055610097565b60006020828403121561007957600080fd5b81516001600160a01b038116811461009057600080fd5b9392505050565b6115c6806100a66000396000f3fe60806040526004361061009c5760003560e01c80636c19e783116100645780636c19e7831461017857806370e5017d14610198578063809ef7ad146101b8578063a26e1186146101d8578063a33e5900146101eb578063ab4255141461022357600080fd5b80631bfc7761146100a15780631f15035a146100da57806340e58ee5146100fc57806353883c8c1461011c5780635d81e05c1461014a575b600080fd5b3480156100ad57600080fd5b506100c16100bc3660046111be565b610245565b6040516100d19493929190611317565b60405180910390f35b3480156100e657600080fd5b506100fa6100f5366004611080565b610317565b005b34801561010857600080fd5b506100fa6101173660046111be565b610489565b34801561012857600080fd5b5061013c61013736600461110d565b61068d565b6040516100d19291906113c2565b34801561015657600080fd5b5061016a61016536600461103e565b610745565b6040519081526020016100d1565b34801561018457600080fd5b506100fa61019336600461101c565b610770565b3480156101a457600080fd5b5061016a6101b336600461103e565b6107bc565b3480156101c457600080fd5b506100fa6101d336600461103e565b6107d0565b6100fa6101e636600461103e565b61085f565b3480156101f757600080fd5b5060005461020b906001600160a01b031681565b6040516001600160a01b0390911681526020016100d1565b34801561022f57600080fd5b50610238610a1a565b6040516100d1919061134e565b600081815260066020526040812080546002820154600383015460019093018054606094869485946001600160a01b03909116939290919083906102889061150e565b80601f01602080910402602001604051908101604052809291908181526020018280546102b49061150e565b80156103015780601f106102d657610100808354040283529160200191610301565b820191906000526020600020905b8154815290600101906020018083116102e457829003601f168201915b5050505050925093509350935093509193509193565b6103788360405180604001604052806008815260200167776974686472617760c01b81525084848080601f016020809104026020016040519081016040528093929190818152602001838380828437600092019190915250610a7b92505050565b60006007878760405161038c9291906112c6565b908152602001604051809103902054116103e65760405162461bcd60e51b815260206004820152601660248201527524b9b9bab2903430b9903737903232b837b9b4ba399760511b60448201526064015b60405180910390fd5b61042786868080601f016020809104026020016040519081016040528093929190818152602001838380828437600092019190915250889250610c7a915050565b7ffdcc8525abdefb8cdd5e05d861d6c2d9ae47cd95fc976238ff5f6c79a55271d386868660088a8a60405161045d9291906112c6565b9081526040519081900360200181205461047994939291611392565b60405180910390a1505050505050565b6000818152600660205260409020546001600160a01b031633146104ff5760405162461bcd60e51b815260206004820152602760248201527f4465706f736974206973206e6f7420796f757273206f7220646f6573206e6f746044820152661032bc34b9ba1760c91b60648201526084016103dd565b60086006600083815260200190815260200160002060010160405161052491906112f2565b9081526020016040518091039020546006600083815260200190815260200160002060030154146105a35760405162461bcd60e51b815260206004820152602360248201527f4465706f7369742068617320616c7265616479206265656e20776974686472616044820152623bb71760e91b60648201526084016103dd565b600081815260066020526040908190206002810154915182916007916105cc91600101906112f2565b908152602001604051809103902060008282546105e991906114c7565b9091555050600082815260066020526040812080546001600160a01b0319168155906106186001830182610ee1565b506000600282018190556003909101819055604051339183156108fc02918491818181858888f19350505050158015610655573d6000803e3d6000fd5b506040518281527fe933406ce445ea24d84ca4529e514adc8926e62cdc8b5a67c568c9fd578f1a8a9060200160405180910390a15050565b80516020818301810180516002825292820191909301209152805481906106b39061150e565b80601f01602080910402602001604051908101604052809291908181526020018280546106df9061150e565b801561072c5780601f106107015761010080835404028352916020019161072c565b820191906000526020600020905b81548152906001019060200180831161070f57829003601f168201915b505050600190930154919250506001600160a01b031682565b6000600883836040516107599291906112c6565b908152602001604051809103902054905092915050565b6003546001600160a01b0316331461079a5760405162461bcd60e51b81526004016103dd906113ec565b600080546001600160a01b0319166001600160a01b0392909216919091179055565b6000600783836040516107599291906112c6565b6003546001600160a01b031633146107fa5760405162461bcd60e51b81526004016103dd906113ec565b61085b3360405180604001604052806008815260200167776974686472617760c01b81525084848080601f016020809104026020016040519081016040528093929190818152602001838380828437600092019190915250610dac92505050565b5050565b34600783836040516108729291906112c6565b9081526020016040518091039020600082825461088f919061146e565b925050819055506040518060800160405280336001600160a01b0316815260200183838080601f0160208091040260200160405190810160405280939291908181526020018383808284376000920191909152505050908252503460208201526040805191019060089061090690869086906112c6565b90815260408051602092819003830190205490925260045460009081526006825291909120825181546001600160a01b0319166001600160a01b03909116178155828201518051919261096192600185019290910190610f1e565b506040828101516002830155606090920151600390910155336000818152600560209081528382206004805482546001810184559285529290932001555491517f63c494c2f87824ae79396869e1e1d19ca8d0a5272a58dc4eea1b4524b378a58c9291908590859034906008906109db90859085906112c6565b908152604051908190036020018120546109f996959493929161142e565b60405180910390a160048054906000610a1183611549565b91905055505050565b33600090815260056020908152604091829020805483518184028101840190945280845260609392830182828015610a7157602002820191906000526020600020905b815481526020019060010190808311610a5d575b5050505050905090565b600282604051610a8b91906112d6565b90815260405190819003602001902060010154336001600160a01b0390911614610b0c5760405162461bcd60e51b815260206004820152602c60248201527f4f6e6c7920776f726b666c6f77206163636f756e742063616e2075736520746860448201526b34b990333ab731ba34b7b71760a11b60648201526084016103dd565b60008381526001602052604090205460ff1615610b625760405162461bcd60e51b8152602060048201526014602482015273293ab71024a21030b63932b0b23c903ab9b2b21760611b60448201526064016103dd565b6000838152600160208190526040808320805460ff191690921790915551610c1090600290610b929086906112d6565b90815260405160209181900382018120610bb09290918891016112fe565b60408051601f1981840301815282825280516020918201207f19457468657265756d205369676e6564204d6573736167653a0a33320000000084830152603c8085019190915282518085039091018152605c909301909152815191012090565b90506000610c1e8284610e33565b6000549091506001600160a01b03808316911614610c735760405162461bcd60e51b815260206004820152601260248201527124b73b30b634b21039b4b3b730ba3ab9329760711b60448201526064016103dd565b5050505050565b6000600783604051610c8c91906112d6565b9081526040519081900360200190205490506000612710610cae8360646114a8565b610cb89190611486565b90506000600785604051610ccc91906112d6565b908152602001604051809103902081905550600884604051610cee91906112d6565b9081526040519081900360200190208054906000610d0b83611549565b909155505060405167776974686472617760c01b8152600290600801908152604051908190036020018120600101546001600160a01b03169082156108fc029083906000818181858888f19350505050158015610d6c573d6000803e3d6000fd5b506001600160a01b0383166108fc610d8483856114c7565b6040518115909202916000818181858888f19350505050158015610c73573d6000803e3d6000fd5b6040518060400160405280828152602001846001600160a01b0316815250600283604051610dda91906112d6565b90815260200160405180910390206000820151816000019080519060200190610e04929190610f1e565b5060209190910151600190910180546001600160a01b0319166001600160a01b03909216919091179055505050565b600080600080610e4285610eb2565b6040805160008152602081018083528b905260ff8516918101919091526060810183905260808101829052929550909350915060019060a0016020604051602081039080840390855afa158015610e9d573d6000803e3d6000fd5b5050604051601f190151979650505050505050565b60008060008351604114610ec557600080fd5b5050506020810151604082015160609092015160001a92909190565b508054610eed9061150e565b6000825580601f10610efd575050565b601f016020900490600052602060002090810190610f1b9190610fa2565b50565b828054610f2a9061150e565b90600052602060002090601f016020900481019282610f4c5760008555610f92565b82601f10610f6557805160ff1916838001178555610f92565b82800160010185558215610f92579182015b82811115610f92578251825591602001919060010190610f77565b50610f9e929150610fa2565b5090565b5b80821115610f9e5760008155600101610fa3565b80356001600160a01b0381168114610fce57600080fd5b919050565b60008083601f840112610fe557600080fd5b50813567ffffffffffffffff811115610ffd57600080fd5b60208301915083602082850101111561101557600080fd5b9250929050565b60006020828403121561102e57600080fd5b61103782610fb7565b9392505050565b6000806020838503121561105157600080fd5b823567ffffffffffffffff81111561106857600080fd5b61107485828601610fd3565b90969095509350505050565b6000806000806000806080878903121561109957600080fd5b863567ffffffffffffffff808211156110b157600080fd5b6110bd8a838b01610fd3565b90985096508691506110d160208a01610fb7565b95506040890135945060608901359150808211156110ee57600080fd5b506110fb89828a01610fd3565b979a9699509497509295939492505050565b60006020828403121561111f57600080fd5b813567ffffffffffffffff8082111561113757600080fd5b818401915084601f83011261114b57600080fd5b81358181111561115d5761115d61157a565b604051601f8201601f19908116603f011681019083821181831017156111855761118561157a565b8160405282815287602084870101111561119e57600080fd5b826020860160208301376000928101602001929092525095945050505050565b6000602082840312156111d057600080fd5b5035919050565b81835281816020850137506000828201602090810191909152601f909101601f19169091010190565b600081518084526112188160208601602086016114de565b601f01601f19169290920160200192915050565b8054600090600181811c908083168061124657607f831692505b602080841082141561126857634e487b7160e01b600052602260045260246000fd5b81801561127c576001811461128d576112ba565b60ff198616895284890196506112ba565b60008881526020902060005b868110156112b25781548b820152908501908301611299565b505084890196505b50505050505092915050565b8183823760009101908152919050565b600082516112e88184602087016114de565b9190910192915050565b6000611037828461122c565b600061130a828561122c565b9283525050602001919050565b6001600160a01b038516815260806020820181905260009061133b90830186611200565b6040830194909452506060015292915050565b6020808252825182820181905260009190848201906040850190845b818110156113865783518352928401929184019160010161136a565b50909695505050505050565b6060815260006113a66060830186886111d7565b6001600160a01b03949094166020830152506040015292915050565b6040815260006113d56040830185611200565b905060018060a01b03831660208301529392505050565b60208082526022908201527f4f6e6c79206f776e65722063616e20726567697374657220776f726b666c6f77604082015261399760f11b606082015260800190565b8681526001600160a01b038616602082015260a06040820181905260009061145990830186886111d7565b60608301949094525060800152949350505050565b6000821982111561148157611481611564565b500190565b6000826114a357634e487b7160e01b600052601260045260246000fd5b500490565b60008160001904831182151516156114c2576114c2611564565b500290565b6000828210156114d9576114d9611564565b500390565b60005b838110156114f95781810151838201526020016114e1565b83811115611508576000848401525b50505050565b600181811c9082168061152257607f821691505b6020821081141561154357634e487b7160e01b600052602260045260246000fd5b50919050565b600060001982141561155d5761155d611564565b5060010190565b634e487b7160e01b600052601160045260246000fd5b634e487b7160e01b600052604160045260246000fdfea26469706673582212203c6e3a2985db7d32f09606d7a1ec304ebb087c5a464b73b2b9b98b813c54a5d764736f6c63430008070033",
  "immutableReferences": {},
  "source": "// SPDX-License-Identifier: GPL-3.0\n\npragma solidity 0.8.7;\n\nimport \"@web3actions/contracts/src/GithubWorkflowClient.sol\";\n\ncontract Deposits is GithubWorkflowClient {\n    address owner;\n\n    struct Deposit {\n        address sender;\n        string issueId;\n        uint256 value;\n        uint256 issueWithdrawalRound;\n    }\n    uint256 nextDepositId = 0;\n    mapping(address => uint256[]) depositsIdsBySender;\n    mapping(uint256 => Deposit) depositsById;\n    mapping(string => uint256) issueBalances;\n    mapping(string => uint256) issueWithdrawalRounds;\n\n    constructor(address _signer) {\n        owner = msg.sender;\n        githubWorkflowSigner = _signer;\n    }\n\n    function registerWorkflow(string calldata _hash) public {\n        require(msg.sender == owner, \"Only owner can register workflows.\");\n        registerGithubWorkflow(msg.sender, \"withdraw\", _hash);\n    }\n\n    function setSigner(address _signer) public {\n        require(msg.sender == owner, \"Only owner can register workflows.\");\n        githubWorkflowSigner = _signer;\n    }\n\n    function getDepositIdsBySender() public view returns (uint256[] memory) {\n        return depositsIdsBySender[msg.sender];\n    }\n\n    function getDepositById(uint256 _depositId)\n        public\n        view\n        returns (\n            address,\n            string memory,\n            uint256,\n            uint256\n        )\n    {\n        return (\n            depositsById[_depositId].sender,\n            depositsById[_depositId].issueId,\n            depositsById[_depositId].value,\n            depositsById[_depositId].issueWithdrawalRound\n        );\n    }\n\n    function getIssueBalance(string calldata _issueId)\n        public\n        view\n        returns (uint256)\n    {\n        return issueBalances[_issueId];\n    }\n\n    function getIssueWithdrawalRound(string calldata _issueId)\n        public\n        view\n        returns (uint256)\n    {\n        return issueWithdrawalRounds[_issueId];\n    }\n\n    event DepositEvent(\n        uint256 depositId,\n        address sender,\n        string issueId,\n        uint256 value,\n        uint256 withdrawalRound\n    );\n\n    function deposit(string calldata _issueId) public payable {\n        issueBalances[_issueId] += msg.value;\n        depositsById[nextDepositId] = Deposit(\n            msg.sender,\n            _issueId,\n            msg.value,\n            issueWithdrawalRounds[_issueId]\n        );\n        depositsIdsBySender[msg.sender].push(nextDepositId);\n\n        emit DepositEvent(\n            nextDepositId,\n            msg.sender,\n            _issueId,\n            msg.value,\n            issueWithdrawalRounds[_issueId]\n        );\n\n        nextDepositId++;\n    }\n\n    event CancelEvent(uint256 depositId);\n\n    function cancel(uint256 _depositId) public {\n        require(\n            depositsById[_depositId].sender == msg.sender,\n            \"Deposit is not yours or does not exist.\"\n        );\n        require(\n            depositsById[_depositId].issueWithdrawalRound ==\n                issueWithdrawalRounds[depositsById[_depositId].issueId],\n            \"Deposit has already been withdrawn.\"\n        );\n\n        uint256 value = depositsById[_depositId].value;\n        issueBalances[depositsById[_depositId].issueId] -= value;\n        delete depositsById[_depositId];\n        payable(msg.sender).transfer(value);\n\n        emit CancelEvent(_depositId);\n    }\n\n    event WithdrawEvent(string issueId, address to, uint256 withdrawalRound);\n\n    function withdraw(\n        string calldata _issueId,\n        address _to,\n        uint256 _runId,\n        bytes calldata _signature\n    ) public {\n        verifyGithubWorkflowRun(_runId, \"withdraw\", _signature);\n        require(issueBalances[_issueId] > 0, \"Issue has no deposits.\");\n\n        payout(_issueId, _to);\n\n        emit WithdrawEvent(_issueId, _to, issueWithdrawalRounds[_issueId]);\n    }\n\n    function payout(string memory _issueId, address _to) internal {\n        uint256 value = issueBalances[_issueId];\n        uint256 fee = (value * 100) / 10000;\n        issueBalances[_issueId] = 0;\n        issueWithdrawalRounds[_issueId]++;\n        payable(githubWorkflows[\"withdraw\"].account).transfer(fee);\n        payable(_to).transfer(value - fee);\n    }\n}\n",
  "sourcePath": "/home/mkt/Projects/web3actions/booster/contracts/Deposits.sol",
  "compiler": {
    "name": "solc",
    "version": "0.8.7+commit.e28d00a7.Emscripten.clang"
  },
  "schemaVersion": "3.4.3",
  "updatedAt": "2021-10-03T16:38:05.401Z",
  "networkType": "ethereum",
  "devdoc": {
    "kind": "dev",
    "methods": {},
    "version": 1
  },
  "userdoc": {
    "kind": "user",
    "methods": {},
    "version": 1
  }
}