{
  "contractName": "Deposits",
  "abi": [
    {
      "inputs": [
        {
          "internalType": "address",
          "name": "_signer",
          "type": "address"
        }
      ],
      "stateMutability": "nonpayable",
      "type": "constructor"
    },
    {
      "anonymous": false,
      "inputs": [
        {
          "indexed": false,
          "internalType": "uint256",
          "name": "depositId",
          "type": "uint256"
        }
      ],
      "name": "CancelEvent",
      "type": "event"
    },
    {
      "anonymous": false,
      "inputs": [
        {
          "indexed": false,
          "internalType": "uint256",
          "name": "depositId",
          "type": "uint256"
        },
        {
          "indexed": false,
          "internalType": "address",
          "name": "sender",
          "type": "address"
        },
        {
          "indexed": false,
          "internalType": "string",
          "name": "issueId",
          "type": "string"
        },
        {
          "indexed": false,
          "internalType": "uint256",
          "name": "value",
          "type": "uint256"
        },
        {
          "indexed": false,
          "internalType": "uint256",
          "name": "withdrawalRound",
          "type": "uint256"
        }
      ],
      "name": "DepositEvent",
      "type": "event"
    },
    {
      "anonymous": false,
      "inputs": [
        {
          "indexed": false,
          "internalType": "string",
          "name": "issueId",
          "type": "string"
        },
        {
          "indexed": false,
          "internalType": "address",
          "name": "to",
          "type": "address"
        },
        {
          "indexed": false,
          "internalType": "uint256",
          "name": "withdrawalRound",
          "type": "uint256"
        }
      ],
      "name": "WithdrawEvent",
      "type": "event"
    },
    {
      "inputs": [
        {
          "internalType": "string",
          "name": "_name",
          "type": "string"
        },
        {
          "internalType": "string",
          "name": "_hash",
          "type": "string"
        }
      ],
      "name": "registerWorkflow",
      "outputs": [],
      "stateMutability": "nonpayable",
      "type": "function"
    },
    {
      "inputs": [
        {
          "internalType": "address",
          "name": "_signer",
          "type": "address"
        }
      ],
      "name": "setSigner",
      "outputs": [],
      "stateMutability": "nonpayable",
      "type": "function"
    },
    {
      "inputs": [],
      "name": "getDepositIdsBySender",
      "outputs": [
        {
          "internalType": "uint256[]",
          "name": "",
          "type": "uint256[]"
        }
      ],
      "stateMutability": "view",
      "type": "function",
      "constant": true
    },
    {
      "inputs": [
        {
          "internalType": "uint256",
          "name": "_depositId",
          "type": "uint256"
        }
      ],
      "name": "getDepositById",
      "outputs": [
        {
          "internalType": "address",
          "name": "",
          "type": "address"
        },
        {
          "internalType": "string",
          "name": "",
          "type": "string"
        },
        {
          "internalType": "uint256",
          "name": "",
          "type": "uint256"
        },
        {
          "internalType": "uint256",
          "name": "",
          "type": "uint256"
        }
      ],
      "stateMutability": "view",
      "type": "function",
      "constant": true
    },
    {
      "inputs": [
        {
          "internalType": "string",
          "name": "_issueId",
          "type": "string"
        }
      ],
      "name": "getIssueBalance",
      "outputs": [
        {
          "internalType": "uint256",
          "name": "",
          "type": "uint256"
        }
      ],
      "stateMutability": "view",
      "type": "function",
      "constant": true
    },
    {
      "inputs": [
        {
          "internalType": "string",
          "name": "_issueId",
          "type": "string"
        }
      ],
      "name": "getIssueWithdrawalRound",
      "outputs": [
        {
          "internalType": "uint256",
          "name": "",
          "type": "uint256"
        }
      ],
      "stateMutability": "view",
      "type": "function",
      "constant": true
    },
    {
      "inputs": [
        {
          "internalType": "string",
          "name": "_issueId",
          "type": "string"
        }
      ],
      "name": "deposit",
      "outputs": [],
      "stateMutability": "payable",
      "type": "function",
      "payable": true
    },
    {
      "inputs": [
        {
          "internalType": "uint256",
          "name": "_depositId",
          "type": "uint256"
        }
      ],
      "name": "cancel",
      "outputs": [],
      "stateMutability": "nonpayable",
      "type": "function"
    },
    {
      "inputs": [
        {
          "internalType": "string",
          "name": "_issueId",
          "type": "string"
        },
        {
          "internalType": "address",
          "name": "_to",
          "type": "address"
        },
        {
          "internalType": "uint256",
          "name": "_runId",
          "type": "uint256"
        },
        {
          "internalType": "bytes",
          "name": "_signature",
          "type": "bytes"
        }
      ],
      "name": "withdraw",
      "outputs": [],
      "stateMutability": "nonpayable",
      "type": "function"
    }
  ],
  "bytecode": "0x6080604052600060035534801561001557600080fd5b5060405161143f38038061143f83398101604081905261003491610067565b60028054336001600160a01b031991821617909155600080549091166001600160a01b0392909216919091179055610097565b60006020828403121561007957600080fd5b81516001600160a01b038116811461009057600080fd5b9392505050565b611399806100a66000396000f3fe6080604052600436106100865760003560e01c80636c19e783116100595780636c19e7831461013457806370e5017d1461015457806392b8a55114610174578063a26e118614610194578063ab425514146101a757600080fd5b80631bfc77611461008b5780631f15035a146100c457806340e58ee5146100e65780635d81e05c14610106575b600080fd5b34801561009757600080fd5b506100ab6100a6366004610fe7565b6101c9565b6040516100bb9493929190611114565b60405180910390f35b3480156100d057600080fd5b506100e46100df366004610eee565b61029b565b005b3480156100f257600080fd5b506100e4610101366004610fe7565b610591565b34801561011257600080fd5b50610126610121366004610eac565b610795565b6040519081526020016100bb565b34801561014057600080fd5b506100e461014f366004610e8a565b6107c0565b34801561016057600080fd5b5061012661016f366004610eac565b61080c565b34801561018057600080fd5b506100e461018f366004610f7b565b610820565b6100e46101a2366004610eac565b6108c4565b3480156101b357600080fd5b506101bc610a80565b6040516100bb9190611165565b600081815260056020526040812080546002820154600383015460019093018054606094869485946001600160a01b039091169392909190839061020c906112f7565b80601f0160208091040260200160405190810160405280929190818152602001828054610238906112f7565b80156102855780601f1061025a57610100808354040283529160200191610285565b820191906000526020600020905b81548152906001019060200180831161026857829003601f168201915b5050505050925093509350935093509193509193565b8260405180604001604052806008815260200167776974686472617760c01b81525083838080601f0160208091040260200160405190810160405280939291908181526020018383808284376000920191909152505060405160019250610304915084906110d3565b90815260405190819003602001902060010154336001600160a01b039091161461038a5760405162461bcd60e51b815260206004820152602c60248201527f4f6e6c7920776f726b666c6f77206163636f756e742063616e2075736520746860448201526b34b990333ab731ba34b7b71760a11b60648201526084015b60405180910390fd5b600061041d60018460405161039f91906110d3565b908152604051602091819003820181206103bd9290918891016110fb565b60408051601f1981840301815282825280516020918201207f19457468657265756d205369676e6564204d6573736167653a0a33320000000084830152603c8085019190915282518085039091018152605c909301909152815191012090565b9050600061042b8284610ae1565b6000549091506001600160a01b038083169116146104805760405162461bcd60e51b815260206004820152601260248201527124b73b30b634b21039b4b3b730ba3ab9329760711b6044820152606401610381565b600060068c8c6040516104949291906110c3565b908152602001604051809103902054116104e95760405162461bcd60e51b815260206004820152601660248201527524b9b9bab2903430b9903737903232b837b9b4ba399760511b6044820152606401610381565b61052a8b8b8080601f0160208091040260200160405190810160405280939291908181526020018383808284376000920191909152508d9250610b60915050565b7ffdcc8525abdefb8cdd5e05d861d6c2d9ae47cd95fc976238ff5f6c79a55271d38b8b8b60078f8f6040516105609291906110c3565b9081526040519081900360200181205461057c949392916111a9565b60405180910390a15050505050505050505050565b6000818152600560205260409020546001600160a01b031633146106075760405162461bcd60e51b815260206004820152602760248201527f4465706f736974206973206e6f7420796f757273206f7220646f6573206e6f746044820152661032bc34b9ba1760c91b6064820152608401610381565b60076005600083815260200190815260200160002060010160405161062c91906110ef565b9081526020016040518091039020546005600083815260200190815260200160002060030154146106ab5760405162461bcd60e51b815260206004820152602360248201527f4465706f7369742068617320616c7265616479206265656e20776974686472616044820152623bb71760e91b6064820152608401610381565b600081815260056020526040908190206002810154915182916006916106d491600101906110ef565b908152602001604051809103902060008282546106f191906112b4565b9091555050600082815260056020526040812080546001600160a01b0319168155906107206001830182610d4f565b506000600282018190556003909101819055604051339183156108fc02918491818181858888f1935050505015801561075d573d6000803e3d6000fd5b506040518281527fe933406ce445ea24d84ca4529e514adc8926e62cdc8b5a67c568c9fd578f1a8a9060200160405180910390a15050565b6000600783836040516107a99291906110c3565b908152602001604051809103902054905092915050565b6002546001600160a01b031633146107ea5760405162461bcd60e51b8152600401610381906111d9565b600080546001600160a01b0319166001600160a01b0392909216919091179055565b6000600683836040516107a99291906110c3565b6002546001600160a01b0316331461084a5760405162461bcd60e51b8152600401610381906111d9565b6108be3385858080601f01602080910402602001604051908101604052809392919081815260200183838082843760009201919091525050604080516020601f89018190048102820181019092528781529250879150869081908401838280828437600092019190915250610c9992505050565b50505050565b34600683836040516108d79291906110c3565b908152602001604051809103902060008282546108f4919061125b565b925050819055506040518060800160405280336001600160a01b0316815260200183838080601f0160208091040260200160405190810160405280939291908181526020018383808284376000920191909152505050908252503460208201526040805191019060079061096b90869086906110c3565b90815260408051602092819003830190205490925260035460009081526005825291909120825181546001600160a01b0319166001600160a01b0390911617815582820151805191926109c692600185019290910190610d8c565b50604082810151600283015560609092015160039182015533600081815260046020908152848220845481546001810183559184529190922090910155905491517f63c494c2f87824ae79396869e1e1d19ca8d0a5272a58dc4eea1b4524b378a58c929190859085903490600790610a4190859085906110c3565b90815260405190819003602001812054610a5f96959493929161121b565b60405180910390a160038054906000610a7783611332565b91905055505050565b33600090815260046020908152604091829020805483518184028101840190945280845260609392830182828015610ad757602002820191906000526020600020905b815481526020019060010190808311610ac3575b5050505050905090565b600080600080610af085610d20565b6040805160008152602081018083528b905260ff8516918101919091526060810183905260808101829052929550909350915060019060a0016020604051602081039080840390855afa158015610b4b573d6000803e3d6000fd5b5050604051601f190151979650505050505050565b6000600683604051610b7291906110d3565b9081526040519081900360200190205490506000612710610b94836064611295565b610b9e9190611273565b90506000600685604051610bb291906110d3565b908152602001604051809103902081905550600784604051610bd491906110d3565b9081526040519081900360200190208054906000610bf183611332565b909155505060405167776974686472617760c01b8152600190600801908152604051908190036020018120600101546001600160a01b03169082156108fc029083906000818181858888f19350505050158015610c52573d6000803e3d6000fd5b506001600160a01b0383166108fc610c6a83856112b4565b6040518115909202916000818181858888f19350505050158015610c92573d6000803e3d6000fd5b5050505050565b6040518060400160405280828152602001846001600160a01b0316815250600183604051610cc791906110d3565b90815260200160405180910390206000820151816000019080519060200190610cf1929190610d8c565b5060209190910151600190910180546001600160a01b0319166001600160a01b03909216919091179055505050565b60008060008351604114610d3357600080fd5b5050506020810151604082015160609092015160001a92909190565b508054610d5b906112f7565b6000825580601f10610d6b575050565b601f016020900490600052602060002090810190610d899190610e10565b50565b828054610d98906112f7565b90600052602060002090601f016020900481019282610dba5760008555610e00565b82601f10610dd357805160ff1916838001178555610e00565b82800160010185558215610e00579182015b82811115610e00578251825591602001919060010190610de5565b50610e0c929150610e10565b5090565b5b80821115610e0c5760008155600101610e11565b80356001600160a01b0381168114610e3c57600080fd5b919050565b60008083601f840112610e5357600080fd5b50813567ffffffffffffffff811115610e6b57600080fd5b602083019150836020828501011115610e8357600080fd5b9250929050565b600060208284031215610e9c57600080fd5b610ea582610e25565b9392505050565b60008060208385031215610ebf57600080fd5b823567ffffffffffffffff811115610ed657600080fd5b610ee285828601610e41565b90969095509350505050565b60008060008060008060808789031215610f0757600080fd5b863567ffffffffffffffff80821115610f1f57600080fd5b610f2b8a838b01610e41565b9098509650869150610f3f60208a01610e25565b9550604089013594506060890135915080821115610f5c57600080fd5b50610f6989828a01610e41565b979a9699509497509295939492505050565b60008060008060408587031215610f9157600080fd5b843567ffffffffffffffff80821115610fa957600080fd5b610fb588838901610e41565b90965094506020870135915080821115610fce57600080fd5b50610fdb87828801610e41565b95989497509550505050565b600060208284031215610ff957600080fd5b5035919050565b81835281816020850137506000828201602090810191909152601f909101601f19169091010190565b8054600090600181811c908083168061104357607f831692505b602080841082141561106557634e487b7160e01b600052602260045260246000fd5b818015611079576001811461108a576110b7565b60ff198616895284890196506110b7565b60008881526020902060005b868110156110af5781548b820152908501908301611096565b505084890196505b50505050505092915050565b8183823760009101908152919050565b600082516110e58184602087016112cb565b9190910192915050565b6000610ea58284611029565b60006111078285611029565b9283525050602001919050565b60018060a01b038516815260806020820152600084518060808401526111418160a08501602089016112cb565b604083019490945250606081019190915260a0601f909201601f1916010192915050565b6020808252825182820181905260009190848201906040850190845b8181101561119d57835183529284019291840191600101611181565b50909695505050505050565b6060815260006111bd606083018688611000565b6001600160a01b03949094166020830152506040015292915050565b60208082526022908201527f4f6e6c79206f776e65722063616e20726567697374657220776f726b666c6f77604082015261399760f11b606082015260800190565b8681526001600160a01b038616602082015260a0604082018190526000906112469083018688611000565b60608301949094525060800152949350505050565b6000821982111561126e5761126e61134d565b500190565b60008261129057634e487b7160e01b600052601260045260246000fd5b500490565b60008160001904831182151516156112af576112af61134d565b500290565b6000828210156112c6576112c661134d565b500390565b60005b838110156112e65781810151838201526020016112ce565b838111156108be5750506000910152565b600181811c9082168061130b57607f821691505b6020821081141561132c57634e487b7160e01b600052602260045260246000fd5b50919050565b60006000198214156113465761134661134d565b5060010190565b634e487b7160e01b600052601160045260246000fdfea2646970667358221220d652645b5bd3c48901bf868fd6874c93f225aedc6baafea288d727dcc21a05f964736f6c63430008070033",
  "immutableReferences": {},
  "source": "// SPDX-License-Identifier: GPL-3.0\n\npragma solidity 0.8.7;\n\nimport \"@web3actions/contracts/src/GithubWorkflowClient.sol\";\n\ncontract Deposits is GithubWorkflowClient {\n    address owner;\n\n    struct Deposit {\n        address sender;\n        string issueId;\n        uint256 value;\n        uint256 issueWithdrawalRound;\n    }\n    uint256 nextDepositId = 0;\n    mapping(address => uint256[]) depositsIdsBySender;\n    mapping(uint256 => Deposit) depositsById;\n    mapping(string => uint256) issueBalances;\n    mapping(string => uint256) issueWithdrawalRounds;\n\n    constructor(address _signer) {\n        owner = msg.sender;\n        githubWorkflowSigner = _signer;\n    }\n\n    function registerWorkflow(string calldata _name, string calldata _hash) public {\n        require(msg.sender == owner, \"Only owner can register workflows.\");\n        registerGithubWorkflow(msg.sender, _name, _hash);\n    }\n\n    function setSigner(address _signer) public {\n        require(msg.sender == owner, \"Only owner can register workflows.\");\n        githubWorkflowSigner = _signer;\n    }\n\n    function getDepositIdsBySender() public view returns (uint256[] memory) {\n        return depositsIdsBySender[msg.sender];\n    }\n\n    function getDepositById(uint256 _depositId)\n        public\n        view\n        returns (\n            address,\n            string memory,\n            uint256,\n            uint256\n        )\n    {\n        return (\n            depositsById[_depositId].sender,\n            depositsById[_depositId].issueId,\n            depositsById[_depositId].value,\n            depositsById[_depositId].issueWithdrawalRound\n        );\n    }\n\n    function getIssueBalance(string calldata _issueId)\n        public\n        view\n        returns (uint256)\n    {\n        return issueBalances[_issueId];\n    }\n\n    function getIssueWithdrawalRound(string calldata _issueId)\n        public\n        view\n        returns (uint256)\n    {\n        return issueWithdrawalRounds[_issueId];\n    }\n\n    event DepositEvent(\n        uint256 depositId,\n        address sender,\n        string issueId,\n        uint256 value,\n        uint256 withdrawalRound\n    );\n\n    function deposit(string calldata _issueId) public payable {\n        issueBalances[_issueId] += msg.value;\n        depositsById[nextDepositId] = Deposit(\n            msg.sender,\n            _issueId,\n            msg.value,\n            issueWithdrawalRounds[_issueId]\n        );\n        depositsIdsBySender[msg.sender].push(nextDepositId);\n\n        emit DepositEvent(\n            nextDepositId,\n            msg.sender,\n            _issueId,\n            msg.value,\n            issueWithdrawalRounds[_issueId]\n        );\n\n        nextDepositId++;\n    }\n\n    event CancelEvent(uint256 depositId);\n\n    function cancel(uint256 _depositId) public {\n        require(\n            depositsById[_depositId].sender == msg.sender,\n            \"Deposit is not yours or does not exist.\"\n        );\n        require(\n            depositsById[_depositId].issueWithdrawalRound ==\n                issueWithdrawalRounds[depositsById[_depositId].issueId],\n            \"Deposit has already been withdrawn.\"\n        );\n\n        uint256 value = depositsById[_depositId].value;\n        issueBalances[depositsById[_depositId].issueId] -= value;\n        delete depositsById[_depositId];\n        payable(msg.sender).transfer(value);\n\n        emit CancelEvent(_depositId);\n    }\n\n    event WithdrawEvent(string issueId, address to, uint256 withdrawalRound);\n\n    function withdraw(\n        string calldata _issueId,\n        address _to,\n        uint256 _runId,\n        bytes calldata _signature\n    ) public onlyWorkflow(_runId, \"withdraw\", _signature) {\n        require(issueBalances[_issueId] > 0, \"Issue has no deposits.\");\n\n        payout(_issueId, _to);\n\n        emit WithdrawEvent(_issueId, _to, issueWithdrawalRounds[_issueId]);\n    }\n\n    function payout(string memory _issueId, address _to) internal {\n        uint256 value = issueBalances[_issueId];\n        uint256 fee = (value * 100) / 10000;\n        issueBalances[_issueId] = 0;\n        issueWithdrawalRounds[_issueId]++;\n        payable(githubWorkflows[\"withdraw\"].account).transfer(fee);\n        payable(_to).transfer(value - fee);\n    }\n}\n",
  "sourcePath": "/home/mkt/Projects/web3actions/booster/contracts/Deposits.sol",
  "compiler": {
    "name": "solc",
    "version": "0.8.7+commit.e28d00a7.Emscripten.clang"
  },
  "schemaVersion": "3.4.3",
  "updatedAt": "2021-09-28T19:14:17.498Z",
  "networkType": "ethereum",
  "devdoc": {
    "kind": "dev",
    "methods": {},
    "version": 1
  },
  "userdoc": {
    "kind": "user",
    "methods": {},
    "version": 1
  }
}