{
  "contractName": "Deposits",
  "abi": [
    {
      "inputs": [
        {
          "internalType": "string",
          "name": "_hash",
          "type": "string"
        },
        {
          "internalType": "address",
          "name": "_signer",
          "type": "address"
        }
      ],
      "stateMutability": "nonpayable",
      "type": "constructor"
    },
    {
      "anonymous": false,
      "inputs": [
        {
          "indexed": false,
          "internalType": "uint256",
          "name": "depositId",
          "type": "uint256"
        }
      ],
      "name": "CancelEvent",
      "type": "event"
    },
    {
      "anonymous": false,
      "inputs": [
        {
          "indexed": false,
          "internalType": "uint256",
          "name": "depositId",
          "type": "uint256"
        },
        {
          "indexed": false,
          "internalType": "address",
          "name": "sender",
          "type": "address"
        },
        {
          "indexed": false,
          "internalType": "string",
          "name": "issueId",
          "type": "string"
        },
        {
          "indexed": false,
          "internalType": "uint256",
          "name": "value",
          "type": "uint256"
        },
        {
          "indexed": false,
          "internalType": "uint256",
          "name": "withdrawalRound",
          "type": "uint256"
        }
      ],
      "name": "DepositEvent",
      "type": "event"
    },
    {
      "anonymous": false,
      "inputs": [
        {
          "indexed": false,
          "internalType": "string",
          "name": "issueId",
          "type": "string"
        },
        {
          "indexed": false,
          "internalType": "address",
          "name": "to",
          "type": "address"
        },
        {
          "indexed": false,
          "internalType": "uint256",
          "name": "withdrawalRound",
          "type": "uint256"
        }
      ],
      "name": "WithdrawEvent",
      "type": "event"
    },
    {
      "inputs": [],
      "name": "getDepositIdsBySender",
      "outputs": [
        {
          "internalType": "uint256[]",
          "name": "",
          "type": "uint256[]"
        }
      ],
      "stateMutability": "view",
      "type": "function",
      "constant": true
    },
    {
      "inputs": [
        {
          "internalType": "uint256",
          "name": "_depositId",
          "type": "uint256"
        }
      ],
      "name": "getDepositById",
      "outputs": [
        {
          "internalType": "address",
          "name": "",
          "type": "address"
        },
        {
          "internalType": "string",
          "name": "",
          "type": "string"
        },
        {
          "internalType": "uint256",
          "name": "",
          "type": "uint256"
        },
        {
          "internalType": "uint256",
          "name": "",
          "type": "uint256"
        }
      ],
      "stateMutability": "view",
      "type": "function",
      "constant": true
    },
    {
      "inputs": [
        {
          "internalType": "string",
          "name": "_issueId",
          "type": "string"
        }
      ],
      "name": "getIssueBalance",
      "outputs": [
        {
          "internalType": "uint256",
          "name": "",
          "type": "uint256"
        }
      ],
      "stateMutability": "view",
      "type": "function",
      "constant": true
    },
    {
      "inputs": [
        {
          "internalType": "string",
          "name": "_issueId",
          "type": "string"
        }
      ],
      "name": "getIssueWithdrawalRound",
      "outputs": [
        {
          "internalType": "uint256",
          "name": "",
          "type": "uint256"
        }
      ],
      "stateMutability": "view",
      "type": "function",
      "constant": true
    },
    {
      "inputs": [
        {
          "internalType": "string",
          "name": "_issueId",
          "type": "string"
        }
      ],
      "name": "deposit",
      "outputs": [],
      "stateMutability": "payable",
      "type": "function",
      "payable": true
    },
    {
      "inputs": [
        {
          "internalType": "uint256",
          "name": "_depositId",
          "type": "uint256"
        }
      ],
      "name": "cancel",
      "outputs": [],
      "stateMutability": "nonpayable",
      "type": "function"
    },
    {
      "inputs": [
        {
          "internalType": "string",
          "name": "_issueId",
          "type": "string"
        },
        {
          "internalType": "address",
          "name": "_to",
          "type": "address"
        },
        {
          "internalType": "uint256",
          "name": "_runId",
          "type": "uint256"
        },
        {
          "internalType": "bytes",
          "name": "_signature",
          "type": "bytes"
        }
      ],
      "name": "withdraw",
      "outputs": [],
      "stateMutability": "nonpayable",
      "type": "function"
    }
  ],
  "bytecode": "0x608060405260006002553480156200001657600080fd5b506040516200145d3803806200145d8339810160408190526200003991620001e1565b6200006c3360405180604001604052806008815260200167776974686472617760c01b815250846200009360201b60201c565b600080546001600160a01b0319166001600160a01b03929092169190911790555062000352565b6040518060400160405280828152602001846001600160a01b0316815250600183604051620000c39190620002ae565b90815260200160405180910390206000820151816000019080519060200190620000ef9291906200011e565b5060209190910151600190910180546001600160a01b0319166001600160a01b03909216919091179055505050565b8280546200012c90620002ff565b90600052602060002090601f0160209004810192826200015057600085556200019b565b82601f106200016b57805160ff19168380011785556200019b565b828001600101855582156200019b579182015b828111156200019b5782518255916020019190600101906200017e565b50620001a9929150620001ad565b5090565b5b80821115620001a95760008155600101620001ae565b80516001600160a01b0381168114620001dc57600080fd5b919050565b60008060408385031215620001f557600080fd5b82516001600160401b03808211156200020d57600080fd5b818501915085601f8301126200022257600080fd5b8151818111156200023757620002376200033c565b604051601f8201601f19908116603f011681019083821181831017156200026257620002626200033c565b816040528281528860208487010111156200027c57600080fd5b6200028f836020830160208801620002cc565b8096505050505050620002a560208401620001c4565b90509250929050565b60008251620002c2818460208701620002cc565b9190910192915050565b60005b83811015620002e9578181015183820152602001620002cf565b83811115620002f9576000848401525b50505050565b600181811c908216806200031457607f821691505b602082108114156200033657634e487b7160e01b600052602260045260246000fd5b50919050565b634e487b7160e01b600052604160045260246000fd5b6110fb80620003626000396000f3fe6080604052600436106100705760003560e01c80635d81e05c1161004e5780635d81e05c146100f057806370e5017d1461011e578063a26e11861461013e578063ab4255141461015157600080fd5b80631bfc7761146100755780631f15035a146100ae57806340e58ee5146100d0575b600080fd5b34801561008157600080fd5b50610095610090366004610d80565b610173565b6040516100a59493929190610eb4565b60405180910390f35b3480156100ba57600080fd5b506100ce6100c9366004610ce6565b610245565b005b3480156100dc57600080fd5b506100ce6100eb366004610d80565b61053b565b3480156100fc57600080fd5b5061011061010b366004610ca4565b61073f565b6040519081526020016100a5565b34801561012a57600080fd5b50610110610139366004610ca4565b61076a565b6100ce61014c366004610ca4565b61077e565b34801561015d57600080fd5b5061016661093d565b6040516100a59190610f05565b600081815260046020526040812080546002820154600383015460019093018054606094869485946001600160a01b03909116939290919083906101b690611059565b80601f01602080910402602001604051908101604052809291908181526020018280546101e290611059565b801561022f5780601f106102045761010080835404028352916020019161022f565b820191906000526020600020905b81548152906001019060200180831161021257829003601f168201915b5050505050925093509350935093509193509193565b8260405180604001604052806008815260200167776974686472617760c01b81525083838080601f01602080910402602001604051908101604052809392919081815260200183838082843760009201919091525050604051600192506102ae91508490610e6c565b90815260405190819003602001902060010154336001600160a01b03909116146103345760405162461bcd60e51b815260206004820152602c60248201527f4f6e6c7920776f726b666c6f77206163636f756e742063616e2075736520746860448201526b34b990333ab731ba34b7b71760a11b60648201526084015b60405180910390fd5b60006103c76001846040516103499190610e6c565b90815260405160209181900382018120610367929091889101610e9b565b60408051601f1981840301815282825280516020918201207f19457468657265756d205369676e6564204d6573736167653a0a33320000000084830152603c8085019190915282518085039091018152605c909301909152815191012090565b905060006103d5828461099e565b6000549091506001600160a01b0380831691161461042a5760405162461bcd60e51b815260206004820152601260248201527124b73b30b634b21039b4b3b730ba3ab9329760711b604482015260640161032b565b600060058c8c60405161043e929190610e5c565b908152602001604051809103902054116104935760405162461bcd60e51b815260206004820152601660248201527524b9b9bab2903430b9903737903232b837b9b4ba399760511b604482015260640161032b565b6104d48b8b8080601f0160208091040260200160405190810160405280939291908181526020018383808284376000920191909152508d9250610a1d915050565b7ffdcc8525abdefb8cdd5e05d861d6c2d9ae47cd95fc976238ff5f6c79a55271d38b8b8b60068f8f60405161050a929190610e5c565b9081526040519081900360200181205461052694939291610f49565b60405180910390a15050505050505050505050565b6000818152600460205260409020546001600160a01b031633146105b15760405162461bcd60e51b815260206004820152602760248201527f4465706f736974206973206e6f7420796f757273206f7220646f6573206e6f746044820152661032bc34b9ba1760c91b606482015260840161032b565b6006600460008381526020019081526020016000206001016040516105d69190610e88565b9081526020016040518091039020546004600083815260200190815260200160002060030154146106555760405162461bcd60e51b815260206004820152602360248201527f4465706f7369742068617320616c7265616479206265656e20776974686472616044820152623bb71760e91b606482015260840161032b565b6000818152600460205260409081902060028101549151829160059161067e9160010190610e88565b9081526020016040518091039020600082825461069b9190611012565b9091555050600082815260046020526040812080546001600160a01b0319168155906106ca6001830182610b85565b506000600282018190556003909101819055604051339183156108fc02918491818181858888f19350505050158015610707573d6000803e3d6000fd5b506040518281527fe933406ce445ea24d84ca4529e514adc8926e62cdc8b5a67c568c9fd578f1a8a9060200160405180910390a15050565b600060068383604051610753929190610e5c565b908152602001604051809103902054905092915050565b600060058383604051610753929190610e5c565b3460058383604051610791929190610e5c565b908152602001604051809103902060008282546107ae9190610fb9565b925050819055506040518060800160405280336001600160a01b0316815260200183838080601f016020809104026020016040519081016040528093929190818152602001838380828437600092019190915250505090825250346020820152604080519101906006906108259086908690610e5c565b90815260408051602092819003830190205490925260025460009081526004825291909120825181546001600160a01b0319166001600160a01b03909116178155828201518051919261088092600185019290910190610bc2565b50604082810151600280840191909155606090930151600392830155336000818152602093845282812085548154600181018355918352949091200192909255915491517f63c494c2f87824ae79396869e1e1d19ca8d0a5272a58dc4eea1b4524b378a58c9291908590859034906006906108fe9085908590610e5c565b9081526040519081900360200181205461091c969594939291610f79565b60405180910390a16002805490600061093483611094565b91905055505050565b3360009081526003602090815260409182902080548351818402810184019094528084526060939283018282801561099457602002820191906000526020600020905b815481526020019060010190808311610980575b5050505050905090565b6000806000806109ad85610b56565b6040805160008152602081018083528b905260ff8516918101919091526060810183905260808101829052929550909350915060019060a0016020604051602081039080840390855afa158015610a08573d6000803e3d6000fd5b5050604051601f190151979650505050505050565b6000600583604051610a2f9190610e6c565b9081526040519081900360200190205490506000612710610a51836064610ff3565b610a5b9190610fd1565b90506000600585604051610a6f9190610e6c565b908152602001604051809103902081905550600684604051610a919190610e6c565b9081526040519081900360200190208054906000610aae83611094565b909155505060405167776974686472617760c01b8152600190600801908152604051908190036020018120600101546001600160a01b03169082156108fc029083906000818181858888f19350505050158015610b0f573d6000803e3d6000fd5b506001600160a01b0383166108fc610b278385611012565b6040518115909202916000818181858888f19350505050158015610b4f573d6000803e3d6000fd5b5050505050565b60008060008351604114610b6957600080fd5b5050506020810151604082015160609092015160001a92909190565b508054610b9190611059565b6000825580601f10610ba1575050565b601f016020900490600052602060002090810190610bbf9190610c46565b50565b828054610bce90611059565b90600052602060002090601f016020900481019282610bf05760008555610c36565b82601f10610c0957805160ff1916838001178555610c36565b82800160010185558215610c36579182015b82811115610c36578251825591602001919060010190610c1b565b50610c42929150610c46565b5090565b5b80821115610c425760008155600101610c47565b60008083601f840112610c6d57600080fd5b50813567ffffffffffffffff811115610c8557600080fd5b602083019150836020828501011115610c9d57600080fd5b9250929050565b60008060208385031215610cb757600080fd5b823567ffffffffffffffff811115610cce57600080fd5b610cda85828601610c5b565b90969095509350505050565b60008060008060008060808789031215610cff57600080fd5b863567ffffffffffffffff80821115610d1757600080fd5b610d238a838b01610c5b565b9098509650602089013591506001600160a01b0382168214610d4457600080fd5b9094506040880135935060608801359080821115610d6157600080fd5b50610d6e89828a01610c5b565b979a9699509497509295939492505050565b600060208284031215610d9257600080fd5b5035919050565b81835281816020850137506000828201602090810191909152601f909101601f19169091010190565b8054600090600181811c9080831680610ddc57607f831692505b6020808410821415610dfe57634e487b7160e01b600052602260045260246000fd5b818015610e125760018114610e2357610e50565b60ff19861689528489019650610e50565b60008881526020902060005b86811015610e485781548b820152908501908301610e2f565b505084890196505b50505050505092915050565b8183823760009101908152919050565b60008251610e7e818460208701611029565b9190910192915050565b6000610e948284610dc2565b9392505050565b6000610ea78285610dc2565b9283525050602001919050565b60018060a01b03851681526080602082015260008451806080840152610ee18160a0850160208901611029565b604083019490945250606081019190915260a0601f909201601f1916010192915050565b6020808252825182820181905260009190848201906040850190845b81811015610f3d57835183529284019291840191600101610f21565b50909695505050505050565b606081526000610f5d606083018688610d99565b6001600160a01b03949094166020830152506040015292915050565b8681526001600160a01b038616602082015260a060408201819052600090610fa49083018688610d99565b60608301949094525060800152949350505050565b60008219821115610fcc57610fcc6110af565b500190565b600082610fee57634e487b7160e01b600052601260045260246000fd5b500490565b600081600019048311821515161561100d5761100d6110af565b500290565b600082821015611024576110246110af565b500390565b60005b8381101561104457818101518382015260200161102c565b83811115611053576000848401525b50505050565b600181811c9082168061106d57607f821691505b6020821081141561108e57634e487b7160e01b600052602260045260246000fd5b50919050565b60006000198214156110a8576110a86110af565b5060010190565b634e487b7160e01b600052601160045260246000fdfea26469706673582212200a0f74e0a2ae3818a6e8c34121f505dc76c9fb3515170f48697d2a8d7980a09b64736f6c63430008070033",
  "immutableReferences": {},
  "source": "// SPDX-License-Identifier: GPL-3.0\n\npragma solidity 0.8.7;\n\nimport \"@web3actions/contracts/src/GithubWorkflowClient.sol\";\n\ncontract Deposits is GithubWorkflowClient {\n    struct Deposit {\n        address sender;\n        string issueId;\n        uint256 value;\n        uint256 issueWithdrawalRound;\n    }\n    uint256 nextDepositId = 0;\n    mapping(address => uint256[]) depositsIdsBySender;\n    mapping(uint256 => Deposit) depositsById;\n    mapping(string => uint256) issueBalances;\n    mapping(string => uint256) issueWithdrawalRounds;\n\n    constructor(string memory _hash, address _signer) {\n        registerGithubWorkflow(msg.sender, \"withdraw\", _hash);\n        githubWorkflowSigner = _signer;\n    }\n\n    function getDepositIdsBySender() public view returns (uint256[] memory) {\n        return depositsIdsBySender[msg.sender];\n    }\n\n    function getDepositById(uint256 _depositId)\n        public\n        view\n        returns (\n            address,\n            string memory,\n            uint256,\n            uint256\n        )\n    {\n        return (\n            depositsById[_depositId].sender,\n            depositsById[_depositId].issueId,\n            depositsById[_depositId].value,\n            depositsById[_depositId].issueWithdrawalRound\n        );\n    }\n\n    function getIssueBalance(string calldata _issueId)\n        public\n        view\n        returns (uint256)\n    {\n        return issueBalances[_issueId];\n    }\n\n    function getIssueWithdrawalRound(string calldata _issueId)\n        public\n        view\n        returns (uint256)\n    {\n        return issueWithdrawalRounds[_issueId];\n    }\n\n    event DepositEvent(\n        uint256 depositId,\n        address sender,\n        string issueId,\n        uint256 value,\n        uint256 withdrawalRound\n    );\n\n    function deposit(string calldata _issueId) public payable {\n        issueBalances[_issueId] += msg.value;\n        depositsById[nextDepositId] = Deposit(\n            msg.sender,\n            _issueId,\n            msg.value,\n            issueWithdrawalRounds[_issueId]\n        );\n        depositsIdsBySender[msg.sender].push(nextDepositId);\n\n        emit DepositEvent(\n            nextDepositId,\n            msg.sender,\n            _issueId,\n            msg.value,\n            issueWithdrawalRounds[_issueId]\n        );\n\n        nextDepositId++;\n    }\n\n    event CancelEvent(uint256 depositId);\n\n    function cancel(uint256 _depositId) public {\n        require(\n            depositsById[_depositId].sender == msg.sender,\n            \"Deposit is not yours or does not exist.\"\n        );\n        require(\n            depositsById[_depositId].issueWithdrawalRound ==\n                issueWithdrawalRounds[depositsById[_depositId].issueId],\n            \"Deposit has already been withdrawn.\"\n        );\n\n        uint256 value = depositsById[_depositId].value;\n        issueBalances[depositsById[_depositId].issueId] -= value;\n        delete depositsById[_depositId];\n        payable(msg.sender).transfer(value);\n\n        emit CancelEvent(_depositId);\n    }\n\n    event WithdrawEvent(string issueId, address to, uint256 withdrawalRound);\n\n    function withdraw(\n        string calldata _issueId,\n        address _to,\n        uint256 _runId,\n        bytes calldata _signature\n    ) public onlyWorkflow(_runId, \"withdraw\", _signature) {\n        require(issueBalances[_issueId] > 0, \"Issue has no deposits.\");\n\n        payout(_issueId, _to);\n\n        emit WithdrawEvent(_issueId, _to, issueWithdrawalRounds[_issueId]);\n    }\n\n    function payout(string memory _issueId, address _to) internal {\n      uint256 value = issueBalances[_issueId];\n      uint256 fee = (value * 100) / 10000;\n      issueBalances[_issueId] = 0;\n      issueWithdrawalRounds[_issueId]++;\n      payable(githubWorkflows[\"withdraw\"].account).transfer(fee);\n      payable(_to).transfer(value - fee);\n    }\n}\n",
  "sourcePath": "/home/mkt/Projects/ethbooster/ethbooster.github.io/contracts/Deposits.sol",
  "compiler": {
    "name": "solc",
    "version": "0.8.7+commit.e28d00a7.Emscripten.clang"
  },
  "schemaVersion": "3.4.3",
  "updatedAt": "2021-09-23T17:13:53.739Z",
  "networkType": "ethereum",
  "devdoc": {
    "kind": "dev",
    "methods": {},
    "version": 1
  },
  "userdoc": {
    "kind": "user",
    "methods": {},
    "version": 1
  }
}